{
  "transactions": [
    {
      "hash": "0x52a00d8b8cb34fe01763f4ccccd5bff61ec15e5a356b6a3265a81624dff27a0e",
      "transactionType": "CALL",
      "contractName": null,
      "contractAddress": "0x779877a7b0d9e8603169ddbd7836e478b4624789",
      "function": "transferAndCall(address,uint256,bytes)",
      "arguments": [
        "0x9DdfaCa8183c41ad55329BdeeD9F6A8d53168B1B",
        "3000000000000000000",
        "0x5859246165c10c94821691b00681a6767778958aca8c2a17f19b653ecce1bc18"
      ],
      "transaction": {
        "from": "0x905fdbe416ae7a3010ea7de3b60e403be45e7859",
        "to": "0x779877a7b0d9e8603169ddbd7836e478b4624789",
        "gas": "0x1c1ff",
        "value": "0x0",
        "input": "0x4000aea00000000000000000000000009ddfaca8183c41ad55329bdeed9f6a8d53168b1b00000000000000000000000000000000000000000000000029a2241af62c0000000000000000000000000000000000000000000000000000000000000000006000000000000000000000000000000000000000000000000000000000000000205859246165c10c94821691b00681a6767778958aca8c2a17f19b653ecce1bc18",
        "nonce": "0x4",
        "chainId": "0xaa36a7"
      },
      "additionalContracts": [],
      "isFixedGasLimit": false
    }
  ],
  "receipts": [
    {
      "status": "0x1",
      "cumulativeGasUsed": "0x99ae3d",
      "logs": [
        {
          "address": "0x779877a7b0d9e8603169ddbd7836e478b4624789",
          "topics": [
            "0xddf252ad1be2c89b69c2b068fc378daa952ba7f163c4a11628f55a4df523b3ef",
            "0x000000000000000000000000905fdbe416ae7a3010ea7de3b60e403be45e7859",
            "0x0000000000000000000000009ddfaca8183c41ad55329bdeed9f6a8d53168b1b"
          ],
          "data": "0x00000000000000000000000000000000000000000000000029a2241af62c0000",
          "blockHash": "0xce3c6d39a2f01fce668ff6896e615517276c2ae638827c22300acdcb1a5b5595",
          "blockNumber": "0x6703d1",
          "transactionHash": "0x52a00d8b8cb34fe01763f4ccccd5bff61ec15e5a356b6a3265a81624dff27a0e",
          "transactionIndex": "0x2c",
          "logIndex": "0x58",
          "removed": false
        },
        {
          "address": "0x779877a7b0d9e8603169ddbd7836e478b4624789",
          "topics": [
            "0xe19260aff97b920c7df27010903aeb9c8d2be5d310a2c67824cf3f15396e4c16",
            "0x000000000000000000000000905fdbe416ae7a3010ea7de3b60e403be45e7859",
            "0x0000000000000000000000009ddfaca8183c41ad55329bdeed9f6a8d53168b1b"
          ],
          "data": "0x00000000000000000000000000000000000000000000000029a2241af62c0000000000000000000000000000000000000000000000000000000000000000004000000000000000000000000000000000000000000000000000000000000000205859246165c10c94821691b00681a6767778958aca8c2a17f19b653ecce1bc18",
          "blockHash": "0xce3c6d39a2f01fce668ff6896e615517276c2ae638827c22300acdcb1a5b5595",
          "blockNumber": "0x6703d1",
          "transactionHash": "0x52a00d8b8cb34fe01763f4ccccd5bff61ec15e5a356b6a3265a81624dff27a0e",
          "transactionIndex": "0x2c",
          "logIndex": "0x59",
          "removed": false
        },
        {
          "address": "0x9ddfaca8183c41ad55329bdeed9f6a8d53168b1b",
          "topics": [
            "0x1ced9348ff549fceab2ac57cd3a9de38edaaab274b725ee82c23e8fc8c4eec7a",
            "0x5859246165c10c94821691b00681a6767778958aca8c2a17f19b653ecce1bc18"
          ],
          "data": "0x000000000000000000000000000000000000000000000000000000000000000000000000000000000000000000000000000000000000000029a2241af62c0000",
          "blockHash": "0xce3c6d39a2f01fce668ff6896e615517276c2ae638827c22300acdcb1a5b5595",
          "blockNumber": "0x6703d1",
          "transactionHash": "0x52a00d8b8cb34fe01763f4ccccd5bff61ec15e5a356b6a3265a81624dff27a0e",
          "transactionIndex": "0x2c",
          "logIndex": "0x5a",
          "removed": false
        }
      ],
      "logsBloom": "0x00000004000000000000000000000000000000000020000000000000020000200000000000000000000000000000000000000000000000000000010000000010000000000002000000000008000000000000000000000000000020000020000008000000000000000000000000000000000000000000000000000010000040000000000000000000000000010000800000000020100000000000000000000000000000000000000000000000010000000000000000000000002004000000000000000002000000000000000000000000000000000000000100000000000000000010000000000000800000000000000000000000000000000000000000000000",
      "type": "0x2",
      "transactionHash": "0x52a00d8b8cb34fe01763f4ccccd5bff61ec15e5a356b6a3265a81624dff27a0e",
      "transactionIndex": "0x2c",
      "blockHash": "0xce3c6d39a2f01fce668ff6896e615517276c2ae638827c22300acdcb1a5b5595",
      "blockNumber": "0x6703d1",
      "gasUsed": "0x133b1",
      "effectiveGasPrice": "0x7b9e82a09",
      "from": "0x905fdbe416ae7a3010ea7de3b60e403be45e7859",
      "to": "0x779877a7b0d9e8603169ddbd7836e478b4624789",
      "contractAddress": null
    }
  ],
  "libraries": [],
  "pending": [],
  "returns": {},
  "timestamp": 1727182550,
  "chain": 11155111,
  "commit": "479133d"
}