{
  "transactions": [
    {
      "hash": "0xdce8db9b94dd7d5216b27ebe1cdc015efea89f54d9728b3c1f81d3638fac3cf9",
      "transactionType": "CALL",
      "contractName": null,
      "contractAddress": "0x779877a7b0d9e8603169ddbd7836e478b4624789",
      "function": "transferAndCall(address,uint256,bytes)",
      "arguments": [
        "0x9DdfaCa8183c41ad55329BdeeD9F6A8d53168B1B",
        "3000000000000000000",
        "0x6888de0f627ce44ed6dcc5503d0f3c902f886c2a0c7f3dcad650692eb6f4174e"
      ],
      "transaction": {
        "from": "0x905fdbe416ae7a3010ea7de3b60e403be45e7859",
        "to": "0x779877a7b0d9e8603169ddbd7836e478b4624789",
        "gas": "0x14cbb",
        "value": "0x0",
        "input": "0x4000aea00000000000000000000000009ddfaca8183c41ad55329bdeed9f6a8d53168b1b00000000000000000000000000000000000000000000000029a2241af62c0000000000000000000000000000000000000000000000000000000000000000006000000000000000000000000000000000000000000000000000000000000000206888de0f627ce44ed6dcc5503d0f3c902f886c2a0c7f3dcad650692eb6f4174e",
        "nonce": "0x5",
        "chainId": "0xaa36a7"
      },
      "additionalContracts": [],
      "isFixedGasLimit": false
    }
  ],
  "receipts": [
    {
      "status": "0x1",
      "cumulativeGasUsed": "0xb1657a",
      "logs": [
        {
          "address": "0x779877a7b0d9e8603169ddbd7836e478b4624789",
          "topics": [
            "0xddf252ad1be2c89b69c2b068fc378daa952ba7f163c4a11628f55a4df523b3ef",
            "0x000000000000000000000000905fdbe416ae7a3010ea7de3b60e403be45e7859",
            "0x0000000000000000000000009ddfaca8183c41ad55329bdeed9f6a8d53168b1b"
          ],
          "data": "0x00000000000000000000000000000000000000000000000029a2241af62c0000",
          "blockHash": "0x6031c6939afc701c5e1b73d22e7008f693ad174a859fa93f299ab7671392aee5",
          "blockNumber": "0x6703fd",
          "transactionHash": "0xdce8db9b94dd7d5216b27ebe1cdc015efea89f54d9728b3c1f81d3638fac3cf9",
          "transactionIndex": "0x4a",
          "logIndex": "0x81",
          "removed": false
        },
        {
          "address": "0x779877a7b0d9e8603169ddbd7836e478b4624789",
          "topics": [
            "0xe19260aff97b920c7df27010903aeb9c8d2be5d310a2c67824cf3f15396e4c16",
            "0x000000000000000000000000905fdbe416ae7a3010ea7de3b60e403be45e7859",
            "0x0000000000000000000000009ddfaca8183c41ad55329bdeed9f6a8d53168b1b"
          ],
          "data": "0x00000000000000000000000000000000000000000000000029a2241af62c0000000000000000000000000000000000000000000000000000000000000000004000000000000000000000000000000000000000000000000000000000000000206888de0f627ce44ed6dcc5503d0f3c902f886c2a0c7f3dcad650692eb6f4174e",
          "blockHash": "0x6031c6939afc701c5e1b73d22e7008f693ad174a859fa93f299ab7671392aee5",
          "blockNumber": "0x6703fd",
          "transactionHash": "0xdce8db9b94dd7d5216b27ebe1cdc015efea89f54d9728b3c1f81d3638fac3cf9",
          "transactionIndex": "0x4a",
          "logIndex": "0x82",
          "removed": false
        },
        {
          "address": "0x9ddfaca8183c41ad55329bdeed9f6a8d53168b1b",
          "topics": [
            "0x1ced9348ff549fceab2ac57cd3a9de38edaaab274b725ee82c23e8fc8c4eec7a",
            "0x6888de0f627ce44ed6dcc5503d0f3c902f886c2a0c7f3dcad650692eb6f4174e"
          ],
          "data": "0x000000000000000000000000000000000000000000000000000000000000000000000000000000000000000000000000000000000000000029a2241af62c0000",
          "blockHash": "0x6031c6939afc701c5e1b73d22e7008f693ad174a859fa93f299ab7671392aee5",
          "blockNumber": "0x6703fd",
          "transactionHash": "0xdce8db9b94dd7d5216b27ebe1cdc015efea89f54d9728b3c1f81d3638fac3cf9",
          "transactionIndex": "0x4a",
          "logIndex": "0x83",
          "removed": false
        }
      ],
      "logsBloom": "0x00000004000000000000000000000000000000000020010000000000020000000000800000000000000000000000000000000000000000000000010000000010000000000000000000000008000000000000000000000000000020000020000008000000000000000000000000000000000000000000000000000010000040000000000000000000000000010000800000000020010000000000000000000000000000000000000000000000010000000000000000000000002004000000000000000002000000000000000000000000000000000000000100000000000000000010000000000000800000000000000000000000000000000000000000000000",
      "type": "0x2",
      "transactionHash": "0xdce8db9b94dd7d5216b27ebe1cdc015efea89f54d9728b3c1f81d3638fac3cf9",
      "transactionIndex": "0x4a",
      "blockHash": "0x6031c6939afc701c5e1b73d22e7008f693ad174a859fa93f299ab7671392aee5",
      "blockNumber": "0x6703fd",
      "gasUsed": "0xf0e5",
      "effectiveGasPrice": "0x7e907b896",
      "from": "0x905fdbe416ae7a3010ea7de3b60e403be45e7859",
      "to": "0x779877a7b0d9e8603169ddbd7836e478b4624789",
      "contractAddress": null
    }
  ],
  "libraries": [],
  "pending": [],
  "returns": {},
  "timestamp": 1727183175,
  "chain": 11155111,
  "commit": "479133d"
}